{
  "_format": "hh-sol-artifact-1",
  "contractName": "Marketplace",
  "sourceName": "contracts/Marketplace.sol",
  "abi": [
    {
      "inputs": [],
      "stateMutability": "nonpayable",
      "type": "constructor"
    },
    {
      "inputs": [],
      "name": "EnforcedPause",
      "type": "error"
    },
    {
      "inputs": [],
      "name": "ExpectedPause",
      "type": "error"
    },
    {
      "inputs": [
        {
          "internalType": "address",
          "name": "owner",
          "type": "address"
        }
      ],
      "name": "OwnableInvalidOwner",
      "type": "error"
    },
    {
      "inputs": [
        {
          "internalType": "address",
          "name": "account",
          "type": "address"
        }
      ],
      "name": "OwnableUnauthorizedAccount",
      "type": "error"
    },
    {
      "inputs": [],
      "name": "ReentrancyGuardReentrantCall",
      "type": "error"
    },
    {
      "anonymous": false,
      "inputs": [
        {
          "indexed": false,
          "internalType": "address",
          "name": "owner",
          "type": "address"
        },
        {
          "indexed": false,
          "internalType": "uint256",
          "name": "amount",
          "type": "uint256"
        }
      ],
      "name": "FeesWithdrawn",
      "type": "event"
    },
    {
      "anonymous": false,
      "inputs": [
        {
          "indexed": false,
          "internalType": "uint256",
          "name": "newFeePercent",
          "type": "uint256"
        }
      ],
      "name": "MarketplaceFeeUpdated",
      "type": "event"
    },
    {
      "anonymous": false,
      "inputs": [],
      "name": "MarketplacePaused",
      "type": "event"
    },
    {
      "anonymous": false,
      "inputs": [],
      "name": "MarketplaceUnpaused",
      "type": "event"
    },
    {
      "anonymous": false,
      "inputs": [
        {
          "indexed": true,
          "internalType": "address",
          "name": "previousOwner",
          "type": "address"
        },
        {
          "indexed": true,
          "internalType": "address",
          "name": "newOwner",
          "type": "address"
        }
      ],
      "name": "OwnershipTransferred",
      "type": "event"
    },
    {
      "anonymous": false,
      "inputs": [
        {
          "indexed": false,
          "internalType": "address",
          "name": "account",
          "type": "address"
        }
      ],
      "name": "Paused",
      "type": "event"
    },
    {
      "anonymous": false,
      "inputs": [
        {
          "indexed": false,
          "internalType": "uint256",
          "name": "id",
          "type": "uint256"
        },
        {
          "indexed": false,
          "internalType": "string",
          "name": "name",
          "type": "string"
        },
        {
          "indexed": false,
          "internalType": "uint256",
          "name": "price",
          "type": "uint256"
        },
        {
          "indexed": false,
          "internalType": "address",
          "name": "seller",
          "type": "address"
        }
      ],
      "name": "ProductCreated",
      "type": "event"
    },
    {
      "anonymous": false,
      "inputs": [
        {
          "indexed": false,
          "internalType": "uint256",
          "name": "id",
          "type": "uint256"
        },
        {
          "indexed": false,
          "internalType": "address",
          "name": "seller",
          "type": "address"
        },
        {
          "indexed": false,
          "internalType": "address",
          "name": "buyer",
          "type": "address"
        }
      ],
      "name": "ProductPurchased",
      "type": "event"
    },
    {
      "anonymous": false,
      "inputs": [
        {
          "indexed": false,
          "internalType": "address",
          "name": "account",
          "type": "address"
        }
      ],
      "name": "Unpaused",
      "type": "event"
    },
    {
      "inputs": [],
      "name": "MAX_FEE_PERCENT",
      "outputs": [
        {
          "internalType": "uint256",
          "name": "",
          "type": "uint256"
        }
      ],
      "stateMutability": "view",
      "type": "function"
    },
    {
      "inputs": [],
      "name": "MAX_PRICE",
      "outputs": [
        {
          "internalType": "uint256",
          "name": "",
          "type": "uint256"
        }
      ],
      "stateMutability": "view",
      "type": "function"
    },
    {
      "inputs": [],
      "name": "collectedFees",
      "outputs": [
        {
          "internalType": "uint256",
          "name": "",
          "type": "uint256"
        }
      ],
      "stateMutability": "view",
      "type": "function"
    },
    {
      "inputs": [
        {
          "internalType": "string",
          "name": "_name",
          "type": "string"
        },
        {
          "internalType": "string",
          "name": "_description",
          "type": "string"
        },
        {
          "internalType": "uint256",
          "name": "_price",
          "type": "uint256"
        }
      ],
      "name": "createProduct",
      "outputs": [],
      "stateMutability": "nonpayable",
      "type": "function"
    },
    {
      "inputs": [],
      "name": "getAllProducts",
      "outputs": [
        {
          "components": [
            {
              "internalType": "uint256",
              "name": "id",
              "type": "uint256"
            },
            {
              "internalType": "string",
              "name": "name",
              "type": "string"
            },
            {
              "internalType": "string",
              "name": "description",
              "type": "string"
            },
            {
              "internalType": "uint256",
              "name": "price",
              "type": "uint256"
            },
            {
              "internalType": "address payable",
              "name": "seller",
              "type": "address"
            },
            {
              "internalType": "address payable",
              "name": "buyer",
              "type": "address"
            },
            {
              "internalType": "bool",
              "name": "isSold",
              "type": "bool"
            }
          ],
          "internalType": "struct Marketplace.Product[]",
          "name": "",
          "type": "tuple[]"
        }
      ],
      "stateMutability": "view",
      "type": "function"
    },
    {
      "inputs": [],
      "name": "getAvailableProducts",
      "outputs": [
        {
          "components": [
            {
              "internalType": "uint256",
              "name": "id",
              "type": "uint256"
            },
            {
              "internalType": "string",
              "name": "name",
              "type": "string"
            },
            {
              "internalType": "string",
              "name": "description",
              "type": "string"
            },
            {
              "internalType": "uint256",
              "name": "price",
              "type": "uint256"
            },
            {
              "internalType": "address payable",
              "name": "seller",
              "type": "address"
            },
            {
              "internalType": "address payable",
              "name": "buyer",
              "type": "address"
            },
            {
              "internalType": "bool",
              "name": "isSold",
              "type": "bool"
            }
          ],
          "internalType": "struct Marketplace.Product[]",
          "name": "",
          "type": "tuple[]"
        }
      ],
      "stateMutability": "view",
      "type": "function"
    },
    {
      "inputs": [],
      "name": "getMarketplaceStats",
      "outputs": [
        {
          "internalType": "uint256",
          "name": "totalProducts",
          "type": "uint256"
        },
        {
          "internalType": "uint256",
          "name": "totalSales",
          "type": "uint256"
        },
        {
          "internalType": "uint256",
          "name": "totalFeesCollected",
          "type": "uint256"
        },
        {
          "internalType": "uint256",
          "name": "currentFeePercent",
          "type": "uint256"
        }
      ],
      "stateMutability": "view",
      "type": "function"
    },
    {
      "inputs": [
        {
          "internalType": "uint256",
          "name": "_productId",
          "type": "uint256"
        }
      ],
      "name": "getProduct",
      "outputs": [
        {
          "components": [
            {
              "internalType": "uint256",
              "name": "id",
              "type": "uint256"
            },
            {
              "internalType": "string",
              "name": "name",
              "type": "string"
            },
            {
              "internalType": "string",
              "name": "description",
              "type": "string"
            },
            {
              "internalType": "uint256",
              "name": "price",
              "type": "uint256"
            },
            {
              "internalType": "address payable",
              "name": "seller",
              "type": "address"
            },
            {
              "internalType": "address payable",
              "name": "buyer",
              "type": "address"
            },
            {
              "internalType": "bool",
              "name": "isSold",
              "type": "bool"
            }
          ],
          "internalType": "struct Marketplace.Product",
          "name": "",
          "type": "tuple"
        }
      ],
      "stateMutability": "view",
      "type": "function"
    },
    {
      "inputs": [
        {
          "internalType": "address",
          "name": "_seller",
          "type": "address"
        }
      ],
      "name": "getSellerProducts",
      "outputs": [
        {
          "components": [
            {
              "internalType": "uint256",
              "name": "id",
              "type": "uint256"
            },
            {
              "internalType": "string",
              "name": "name",
              "type": "string"
            },
            {
              "internalType": "string",
              "name": "description",
              "type": "string"
            },
            {
              "internalType": "uint256",
              "name": "price",
              "type": "uint256"
            },
            {
              "internalType": "address payable",
              "name": "seller",
              "type": "address"
            },
            {
              "internalType": "address payable",
              "name": "buyer",
              "type": "address"
            },
            {
              "internalType": "bool",
              "name": "isSold",
              "type": "bool"
            }
          ],
          "internalType": "struct Marketplace.Product[]",
          "name": "",
          "type": "tuple[]"
        }
      ],
      "stateMutability": "view",
      "type": "function"
    },
    {
      "inputs": [],
      "name": "marketplaceFeePercent",
      "outputs": [
        {
          "internalType": "uint256",
          "name": "",
          "type": "uint256"
        }
      ],
      "stateMutability": "view",
      "type": "function"
    },
    {
      "inputs": [],
      "name": "owner",
      "outputs": [
        {
          "internalType": "address",
          "name": "",
          "type": "address"
        }
      ],
      "stateMutability": "view",
      "type": "function"
    },
    {
      "inputs": [],
      "name": "paused",
      "outputs": [
        {
          "internalType": "bool",
          "name": "",
          "type": "bool"
        }
      ],
      "stateMutability": "view",
      "type": "function"
    },
    {
      "inputs": [],
      "name": "productCount",
      "outputs": [
        {
          "internalType": "uint256",
          "name": "",
          "type": "uint256"
        }
      ],
      "stateMutability": "view",
      "type": "function"
    },
    {
      "inputs": [
        {
          "internalType": "uint256",
          "name": "",
          "type": "uint256"
        }
      ],
      "name": "products",
      "outputs": [
        {
          "internalType": "uint256",
          "name": "id",
          "type": "uint256"
        },
        {
          "internalType": "string",
          "name": "name",
          "type": "string"
        },
        {
          "internalType": "string",
          "name": "description",
          "type": "string"
        },
        {
          "internalType": "uint256",
          "name": "price",
          "type": "uint256"
        },
        {
          "internalType": "address payable",
          "name": "seller",
          "type": "address"
        },
        {
          "internalType": "address payable",
          "name": "buyer",
          "type": "address"
        },
        {
          "internalType": "bool",
          "name": "isSold",
          "type": "bool"
        }
      ],
      "stateMutability": "view",
      "type": "function"
    },
    {
      "inputs": [
        {
          "internalType": "uint256",
          "name": "_productId",
          "type": "uint256"
        }
      ],
      "name": "purchaseProduct",
      "outputs": [],
      "stateMutability": "payable",
      "type": "function"
    },
    {
      "inputs": [],
      "name": "renounceOwnership",
      "outputs": [],
      "stateMutability": "nonpayable",
      "type": "function"
    },
    {
      "inputs": [
        {
          "internalType": "uint256",
          "name": "_feePercent",
          "type": "uint256"
        }
      ],
      "name": "setMarketplaceFee",
      "outputs": [],
      "stateMutability": "nonpayable",
      "type": "function"
    },
    {
      "inputs": [
        {
          "internalType": "address",
          "name": "newOwner",
          "type": "address"
        }
      ],
      "name": "transferOwnership",
      "outputs": [],
      "stateMutability": "nonpayable",
      "type": "function"
    },
    {
      "inputs": [],
      "name": "withdrawFees",
      "outputs": [],
      "stateMutability": "nonpayable",
      "type": "function"
    }
  ],
  "bytecode": "0x6080604052600060035560fa600455600060055534801561001f57600080fd5b506001600055338061004b57604051631e4fbdf760e01b81526000600482015260240160405180910390fd5b6100548161005a565b506100ac565b600180546001600160a01b038381166001600160a01b0319831681179093556040519116919082907f8be0079c531659141344cd1fd0a4f28419497f9722a3daafe3b4186f6b6457e090600090a35050565b611ddb806100bb6000396000f3fe6080604052600436106101145760003560e01c80637acc0b20116100a0578063a142220911610064578063a1422209146102db578063b9db15b4146102fb578063e0f6ef8714610328578063e6a93e161461033e578063f2fde38b1461035e57600080fd5b80637acc0b2014610215578063812d966a146102485780638da5cb5b1461027d5780639003adfe146102a55780639407ea98146102bb57600080fd5b806338e76a03116100e757806338e76a0314610196578063476343ee146101ab5780635c975abb146101c057806367d81740146101ea578063715018a61461020057600080fd5b806301c11d961461011957806302ee3a52146101495780630ff4e2b41461016b57806338d73b0d14610180575b600080fd5b34801561012557600080fd5b50610136683635c9adc5dea0000081565b6040519081526020015b60405180910390f35b34801561015557600080fd5b5061015e61037e565b6040516101409190611952565b34801561017757600080fd5b5061015e6105b0565b34801561018c57600080fd5b5061013660045481565b6101a96101a43660046119b4565b61085a565b005b3480156101b757600080fd5b506101a9610bfd565b3480156101cc57600080fd5b50600154600160a01b900460ff166040519015158152602001610140565b3480156101f657600080fd5b506101366103e881565b34801561020c57600080fd5b506101a9610d62565b34801561022157600080fd5b506102356102303660046119b4565b610d76565b60405161014097969594939291906119cd565b34801561025457600080fd5b5061025d610ed5565b604080519485526020850193909352918301526060820152608001610140565b34801561028957600080fd5b506001546040516001600160a01b039091168152602001610140565b3480156102b157600080fd5b5061013660055481565b3480156102c757600080fd5b506101a96102d63660046119b4565b610f3f565b3480156102e757600080fd5b506101a96102f6366004611ace565b610fc3565b34801561030757600080fd5b5061031b6103163660046119b4565b611290565b6040516101409190611b3b565b34801561033457600080fd5b5061013660035481565b34801561034a57600080fd5b5061015e610359366004611b55565b61147c565b34801561036a57600080fd5b506101a9610379366004611b55565b61172f565b6060600060035467ffffffffffffffff81111561039d5761039d611a2b565b6040519080825280602002602001820160405280156103d657816020015b6103c361183e565b8152602001906001900390816103bb5790505b50905060015b60035481116105aa57600260008281526020019081526020016000206040518060e00160405290816000820154815260200160018201805461041d90611b7e565b80601f016020809104026020016040519081016040528092919081815260200182805461044990611b7e565b80156104965780601f1061046b57610100808354040283529160200191610496565b820191906000526020600020905b81548152906001019060200180831161047957829003601f168201915b505050505081526020016002820180546104af90611b7e565b80601f01602080910402602001604051908101604052809291908181526020018280546104db90611b7e565b80156105285780601f106104fd57610100808354040283529160200191610528565b820191906000526020600020905b81548152906001019060200180831161050b57829003601f168201915b50505091835250506003820154602082015260048201546001600160a01b0390811660408301526005909201549182166060820152600160a01b90910460ff1615156080909101528261057c600184611bc8565b8151811061058c5761058c611be1565b602002602001018190525080806105a290611bf7565b9150506103dc565b50919050565b6060600060015b600354811161060057600081815260026020526040902060050154600160a01b900460ff166105ee57816105ea81611bf7565b9250505b806105f881611bf7565b9150506105b7565b5060008167ffffffffffffffff81111561061c5761061c611a2b565b60405190808252806020026020018201604052801561065557816020015b61064261183e565b81526020019060019003908161063a5790505b509050600060015b600354811161085157600081815260026020526040902060050154600160a01b900460ff1661083f57600260008281526020019081526020016000206040518060e0016040529081600082015481526020016001820180546106be90611b7e565b80601f01602080910402602001604051908101604052809291908181526020018280546106ea90611b7e565b80156107375780601f1061070c57610100808354040283529160200191610737565b820191906000526020600020905b81548152906001019060200180831161071a57829003601f168201915b5050505050815260200160028201805461075090611b7e565b80601f016020809104026020016040519081016040528092919081815260200182805461077c90611b7e565b80156107c95780601f1061079e576101008083540402835291602001916107c9565b820191906000526020600020905b8154815290600101906020018083116107ac57829003601f168201915b50505091835250506003820154602082015260048201546001600160a01b0390811660408301526005909201549182166060820152600160a01b90910460ff161515608090910152835184908490811061082557610825611be1565b6020026020010181905250818061083b90611bf7565b9250505b8061084981611bf7565b91505061065d565b50909392505050565b61086261176a565b61086a611794565b60008111801561087c57506003548111155b6108c25760405162461bcd60e51b8152602060048201526012602482015271125b9d985b1a59081c1c9bd91d58dd08125160721b60448201526064015b60405180910390fd5b6000818152600260205260409020600381015434101561091b5760405162461bcd60e51b8152602060048201526014602482015273125b9cdd59999a58da595b9d081c185e5b595b9d60621b60448201526064016108b9565b6005810154600160a01b900460ff161561096e5760405162461bcd60e51b8152602060048201526014602482015273141c9bd91d58dd08185b1c9958591e481cdbdb1960621b60448201526064016108b9565b6004810154336001600160a01b03909116036109cc5760405162461bcd60e51b815260206004820152601b60248201527f43616e6e6f742062757920796f7572206f776e2070726f64756374000000000060448201526064016108b9565b60058101805460ff60a01b1933166001600160a81b031990911617600160a01b179055600454600382015460009161271091610a089190611c10565b610a129190611c27565b90506000818360030154610a269190611bc8565b90508160056000828254610a3a9190611c49565b909155505060048301546040516000916001600160a01b03169083908381818185875af1925050503d8060008114610a8e576040519150601f19603f3d011682016040523d82523d6000602084013e610a93565b606091505b5050905080610ae45760405162461bcd60e51b815260206004820181905260248201527f4661696c656420746f2073656e64207061796d656e7420746f2073656c6c657260448201526064016108b9565b8360030154341115610ba0576000846003015434610b029190611bc8565b604051909150600090339083908381818185875af1925050503d8060008114610b47576040519150601f19603f3d011682016040523d82523d6000602084013e610b4c565b606091505b5050905080610b9d5760405162461bcd60e51b815260206004820152601f60248201527f4661696c656420746f20726566756e6420657863657373207061796d656e740060448201526064016108b9565b50505b6004840154604080518781526001600160a01b0390921660208301523382820152517f405b8e92032184041314dcddf305e0d97d13b103d3fa162eb2b1c760760bdc0a9181900360600190a150505050610bfa6001600055565b50565b610c056117bf565b600060055411610c4d5760405162461bcd60e51b81526020600482015260136024820152724e6f206665657320746f20776974686472617760681b60448201526064016108b9565b6005805460009182905590610c6a6001546001600160a01b031690565b6001600160a01b03168260405160006040518083038185875af1925050503d8060008114610cb4576040519150601f19603f3d011682016040523d82523d6000602084013e610cb9565b606091505b5050905080610d0a5760405162461bcd60e51b815260206004820152601760248201527f4661696c656420746f207769746864726177206665657300000000000000000060448201526064016108b9565b7fc0819c13be868895eb93e40eaceb96de976442fa1d404e5c55f14bb65a8c489a610d3d6001546001600160a01b031690565b604080516001600160a01b039092168252602082018590520160405180910390a15050565b610d6a6117bf565b610d7460006117ec565b565b60026020526000908152604090208054600182018054919291610d9890611b7e565b80601f0160208091040260200160405190810160405280929190818152602001828054610dc490611b7e565b8015610e115780601f10610de657610100808354040283529160200191610e11565b820191906000526020600020905b815481529060010190602001808311610df457829003601f168201915b505050505090806002018054610e2690611b7e565b80601f0160208091040260200160405190810160405280929190818152602001828054610e5290611b7e565b8015610e9f5780601f10610e7457610100808354040283529160200191610e9f565b820191906000526020600020905b815481529060010190602001808311610e8257829003601f168201915b5050505060038301546004840154600590940154929390926001600160a01b03918216925090811690600160a01b900460ff1687565b60008080808060015b6003548111610f2857600081815260026020526040902060050154600160a01b900460ff1615610f165781610f1281611bf7565b9250505b80610f2081611bf7565b915050610ede565b506003546005546004549197929650945092509050565b610f476117bf565b6103e8811115610f885760405162461bcd60e51b815260206004820152600c60248201526b08ccaca40e8dede40d0d2ced60a31b60448201526064016108b9565b60048190556040518181527fe18aa129833f655a8166b6185277fee7a53f67e46fd32329bc2fc2ac21274d559060200160405180910390a150565b610fcb611794565b600083511161101c5760405162461bcd60e51b815260206004820152601c60248201527f50726f64756374206e616d652063616e6e6f7420626520656d7074790000000060448201526064016108b9565b6064835111156110665760405162461bcd60e51b815260206004820152601560248201527450726f64756374206e616d6520746f6f206c6f6e6760581b60448201526064016108b9565b6101f4825111156110b05760405162461bcd60e51b81526020600482015260146024820152734465736372697074696f6e20746f6f206c6f6e6760601b60448201526064016108b9565b6000811161110c5760405162461bcd60e51b8152602060048201526024808201527f50726f64756374207072696365206d75737420626520677265617465722074686044820152630616e20360e41b60648201526084016108b9565b683635c9adc5dea0000081111561115e5760405162461bcd60e51b81526020600482015260166024820152750a0e4dec8eac6e840e0e4d2c6ca40e8dede40d0d2ced60531b60448201526064016108b9565b6003805490600061116e83611bf7565b90915550506040805160e081018252600354808252602080830187815283850187905260608401869052336080850152600060a0850181905260c08501819052928352600290915292902081518155915190919060018201906111d19082611cab565b50604082015160028201906111e69082611cab565b50606082015160038083019190915560808301516004830180546001600160a01b039283166001600160a01b031990911617905560a08401516005909301805460c0909501511515600160a01b026001600160a81b03199095169390911692909217929092179055546040517f2e87df3c8f53fb06266ed52023929f5fab9f24130224ef6538b665d9cac825309161128391869085903390611d6b565b60405180910390a1505050565b61129861183e565b6000821180156112aa57506003548211155b6112eb5760405162461bcd60e51b8152602060048201526012602482015271125b9d985b1a59081c1c9bd91d58dd08125160721b60448201526064016108b9565b600260008381526020019081526020016000206040518060e00160405290816000820154815260200160018201805461132390611b7e565b80601f016020809104026020016040519081016040528092919081815260200182805461134f90611b7e565b801561139c5780601f106113715761010080835404028352916020019161139c565b820191906000526020600020905b81548152906001019060200180831161137f57829003601f168201915b505050505081526020016002820180546113b590611b7e565b80601f01602080910402602001604051908101604052809291908181526020018280546113e190611b7e565b801561142e5780601f106114035761010080835404028352916020019161142e565b820191906000526020600020905b81548152906001019060200180831161141157829003601f168201915b50505091835250506003820154602082015260048201546001600160a01b0390811660408301526005909201549182166060820152600160a01b90910460ff16151560809091015292915050565b6060600060015b60035481116114d0576000818152600260205260409020600401546001600160a01b038086169116036114be57816114ba81611bf7565b9250505b806114c881611bf7565b915050611483565b5060008167ffffffffffffffff8111156114ec576114ec611a2b565b60405190808252806020026020018201604052801561152557816020015b61151261183e565b81526020019060019003908161150a5790505b509050600060015b6003548111611725576000818152600260205260409020600401546001600160a01b0380881691160361171357600260008281526020019081526020016000206040518060e00160405290816000820154815260200160018201805461159290611b7e565b80601f01602080910402602001604051908101604052809291908181526020018280546115be90611b7e565b801561160b5780601f106115e05761010080835404028352916020019161160b565b820191906000526020600020905b8154815290600101906020018083116115ee57829003601f168201915b5050505050815260200160028201805461162490611b7e565b80601f016020809104026020016040519081016040528092919081815260200182805461165090611b7e565b801561169d5780601f106116725761010080835404028352916020019161169d565b820191906000526020600020905b81548152906001019060200180831161168057829003601f168201915b50505091835250506003820154602082015260048201546001600160a01b0390811660408301526005909201549182166060820152600160a01b90910460ff16151560809091015283518490849081106116f9576116f9611be1565b6020026020010181905250818061170f90611bf7565b9250505b8061171d81611bf7565b91505061152d565b5090949350505050565b6117376117bf565b6001600160a01b03811661176157604051631e4fbdf760e01b8152600060048201526024016108b9565b610bfa816117ec565b60026000540361178d57604051633ee5aeb560e01b815260040160405180910390fd5b6002600055565b600154600160a01b900460ff1615610d745760405163d93c066560e01b815260040160405180910390fd5b6001546001600160a01b03163314610d745760405163118cdaa760e01b81523360048201526024016108b9565b600180546001600160a01b038381166001600160a01b0319831681179093556040519116919082907f8be0079c531659141344cd1fd0a4f28419497f9722a3daafe3b4186f6b6457e090600090a35050565b6040518060e001604052806000815260200160608152602001606081526020016000815260200160006001600160a01b0316815260200160006001600160a01b031681526020016000151581525090565b6000815180845260005b818110156118b557602081850181015186830182015201611899565b506000602082860101526020601f19601f83011685010191505092915050565b805182526000602082015160e060208501526118f460e085018261188f565b90506040830151848203604086015261190d828261188f565b91505060608301516060850152608083015160018060a01b0380821660808701528060a08601511660a0870152505060c0830151151560c08501528091505092915050565b6000602080830181845280855180835260408601915060408160051b870101925083870160005b828110156119a757603f198886030184526119958583516118d5565b94509285019290850190600101611979565b5092979650505050505050565b6000602082840312156119c657600080fd5b5035919050565b87815260e0602082015260006119e660e083018961188f565b82810360408401526119f8818961188f565b606084019790975250506001600160a01b0393841660808201529190921660a082015290151560c0909101529392505050565b634e487b7160e01b600052604160045260246000fd5b600082601f830112611a5257600080fd5b813567ffffffffffffffff80821115611a6d57611a6d611a2b565b604051601f8301601f19908116603f01168101908282118183101715611a9557611a95611a2b565b81604052838152866020858801011115611aae57600080fd5b836020870160208301376000602085830101528094505050505092915050565b600080600060608486031215611ae357600080fd5b833567ffffffffffffffff80821115611afb57600080fd5b611b0787838801611a41565b94506020860135915080821115611b1d57600080fd5b50611b2a86828701611a41565b925050604084013590509250925092565b602081526000611b4e60208301846118d5565b9392505050565b600060208284031215611b6757600080fd5b81356001600160a01b0381168114611b4e57600080fd5b600181811c90821680611b9257607f821691505b6020821081036105aa57634e487b7160e01b600052602260045260246000fd5b634e487b7160e01b600052601160045260246000fd5b81810381811115611bdb57611bdb611bb2565b92915050565b634e487b7160e01b600052603260045260246000fd5b600060018201611c0957611c09611bb2565b5060010190565b8082028115828204841417611bdb57611bdb611bb2565b600082611c4457634e487b7160e01b600052601260045260246000fd5b500490565b80820180821115611bdb57611bdb611bb2565b601f821115611ca657600081815260208120601f850160051c81016020861015611c835750805b601f850160051c820191505b81811015611ca257828155600101611c8f565b5050505b505050565b815167ffffffffffffffff811115611cc557611cc5611a2b565b611cd981611cd38454611b7e565b84611c5c565b602080601f831160018114611d0e5760008415611cf65750858301515b600019600386901b1c1916600185901b178555611ca2565b600085815260208120601f198616915b82811015611d3d57888601518255948401946001909101908401611d1e565b5085821015611d5b5787850151600019600388901b60f8161c191681555b5050505050600190811b01905550565b848152608060208201526000611d84608083018661188f565b6040830194909452506001600160a01b03919091166060909101529291505056fea2646970667358221220e610af199f8a286ce8433456233399ee1228edfeb2cca436eac7b9f41358518964736f6c63430008140033",
  "linkReferences": {},
  "deployedLinkReferences": {}
}